{
	"data": {
		"bytecode": {
			"linkReferences": {},
			"object": "6080604052600a600055601460015534801561001a57600080fd5b506101b98061002a6000396000f3fe608060405234801561001057600080fd5b50600436106100575760003560e01c80630c55699c1461005c57806328d69c6d1461007a5780633c9d377d146100985780639942ec6f146100b6578063c3f90202146100d4575b600080fd5b6100646100f2565b6040516100719190610168565b60405180910390f35b6100826100f8565b60405161008f9190610168565b60405180910390f35b6100a0610102565b6040516100ad9190610168565b60405180910390f35b6100be610120565b6040516100cb9190610168565b60405180910390f35b6100dc610134565b6040516100e99190610168565b60405180910390f35b60005481565b6000600154905090565b60008061010d61013d565b9050610117610146565b90508091505090565b60008061012b610146565b90508091505090565b60008054905090565b60008054905090565b60008054905090565b6000819050919050565b6101628161014f565b82525050565b600060208201905061017d6000830184610159565b9291505056fea2646970667358221220cfe5e36a16e488c4bb528f5bf6e36f02eb1d317cacdce64c62c768abb28d84dd64736f6c634300080a0033",
			"opcodes": "PUSH1 0x80 PUSH1 0x40 MSTORE PUSH1 0xA PUSH1 0x0 SSTORE PUSH1 0x14 PUSH1 0x1 SSTORE CALLVALUE DUP1 ISZERO PUSH2 0x1A JUMPI PUSH1 0x0 DUP1 REVERT JUMPDEST POP PUSH2 0x1B9 DUP1 PUSH2 0x2A PUSH1 0x0 CODECOPY PUSH1 0x0 RETURN INVALID PUSH1 0x80 PUSH1 0x40 MSTORE CALLVALUE DUP1 ISZERO PUSH2 0x10 JUMPI PUSH1 0x0 DUP1 REVERT JUMPDEST POP PUSH1 0x4 CALLDATASIZE LT PUSH2 0x57 JUMPI PUSH1 0x0 CALLDATALOAD PUSH1 0xE0 SHR DUP1 PUSH4 0xC55699C EQ PUSH2 0x5C JUMPI DUP1 PUSH4 0x28D69C6D EQ PUSH2 0x7A JUMPI DUP1 PUSH4 0x3C9D377D EQ PUSH2 0x98 JUMPI DUP1 PUSH4 0x9942EC6F EQ PUSH2 0xB6 JUMPI DUP1 PUSH4 0xC3F90202 EQ PUSH2 0xD4 JUMPI JUMPDEST PUSH1 0x0 DUP1 REVERT JUMPDEST PUSH2 0x64 PUSH2 0xF2 JUMP JUMPDEST PUSH1 0x40 MLOAD PUSH2 0x71 SWAP2 SWAP1 PUSH2 0x168 JUMP JUMPDEST PUSH1 0x40 MLOAD DUP1 SWAP2 SUB SWAP1 RETURN JUMPDEST PUSH2 0x82 PUSH2 0xF8 JUMP JUMPDEST PUSH1 0x40 MLOAD PUSH2 0x8F SWAP2 SWAP1 PUSH2 0x168 JUMP JUMPDEST PUSH1 0x40 MLOAD DUP1 SWAP2 SUB SWAP1 RETURN JUMPDEST PUSH2 0xA0 PUSH2 0x102 JUMP JUMPDEST PUSH1 0x40 MLOAD PUSH2 0xAD SWAP2 SWAP1 PUSH2 0x168 JUMP JUMPDEST PUSH1 0x40 MLOAD DUP1 SWAP2 SUB SWAP1 RETURN JUMPDEST PUSH2 0xBE PUSH2 0x120 JUMP JUMPDEST PUSH1 0x40 MLOAD PUSH2 0xCB SWAP2 SWAP1 PUSH2 0x168 JUMP JUMPDEST PUSH1 0x40 MLOAD DUP1 SWAP2 SUB SWAP1 RETURN JUMPDEST PUSH2 0xDC PUSH2 0x134 JUMP JUMPDEST PUSH1 0x40 MLOAD PUSH2 0xE9 SWAP2 SWAP1 PUSH2 0x168 JUMP JUMPDEST PUSH1 0x40 MLOAD DUP1 SWAP2 SUB SWAP1 RETURN JUMPDEST PUSH1 0x0 SLOAD DUP2 JUMP JUMPDEST PUSH1 0x0 PUSH1 0x1 SLOAD SWAP1 POP SWAP1 JUMP JUMPDEST PUSH1 0x0 DUP1 PUSH2 0x10D PUSH2 0x13D JUMP JUMPDEST SWAP1 POP PUSH2 0x117 PUSH2 0x146 JUMP JUMPDEST SWAP1 POP DUP1 SWAP2 POP POP SWAP1 JUMP JUMPDEST PUSH1 0x0 DUP1 PUSH2 0x12B PUSH2 0x146 JUMP JUMPDEST SWAP1 POP DUP1 SWAP2 POP POP SWAP1 JUMP JUMPDEST PUSH1 0x0 DUP1 SLOAD SWAP1 POP SWAP1 JUMP JUMPDEST PUSH1 0x0 DUP1 SLOAD SWAP1 POP SWAP1 JUMP JUMPDEST PUSH1 0x0 DUP1 SLOAD SWAP1 POP SWAP1 JUMP JUMPDEST PUSH1 0x0 DUP2 SWAP1 POP SWAP2 SWAP1 POP JUMP JUMPDEST PUSH2 0x162 DUP2 PUSH2 0x14F JUMP JUMPDEST DUP3 MSTORE POP POP JUMP JUMPDEST PUSH1 0x0 PUSH1 0x20 DUP3 ADD SWAP1 POP PUSH2 0x17D PUSH1 0x0 DUP4 ADD DUP5 PUSH2 0x159 JUMP JUMPDEST SWAP3 SWAP2 POP POP JUMP INVALID LOG2 PUSH5 0x6970667358 0x22 SLT KECCAK256 0xCF 0xE5 0xE3 PUSH11 0x16E488C4BB528F5BF6E36F MUL 0xEB SAR BALANCE PUSH29 0xACDCE64C62C768ABB28D84DD64736F6C634300080A0033000000000000 "
		},
		"gasEstimates": {
			"creation": {
				"codeDepositCost": "88200",
				"executionCost": "44347",
				"totalCost": "132547"
			},
			"external": {
				"f2()": "2529",
				"f4()": "2503",
				"f5()": "4650",
				"get_y()": "2437",
				"x()": "2407"
			},
			"internal": {
				"f1()": "2123",
				"f3()": "2123"
			}
		},
		"methodIdentifiers": {
			"f2()": "9942ec6f",
			"f4()": "c3f90202",
			"f5()": "3c9d377d",
			"get_y()": "28d69c6d",
			"x()": "0c55699c"
		}
	},
	"abi": [
		{
			"inputs": [],
			"name": "f2",
			"outputs": [
				{
					"internalType": "int256",
					"name": "",
					"type": "int256"
				}
			],
			"stateMutability": "view",
			"type": "function"
		},
		{
			"inputs": [],
			"name": "f4",
			"outputs": [
				{
					"internalType": "int256",
					"name": "",
					"type": "int256"
				}
			],
			"stateMutability": "view",
			"type": "function"
		},
		{
			"inputs": [],
			"name": "f5",
			"outputs": [
				{
					"internalType": "int256",
					"name": "",
					"type": "int256"
				}
			],
			"stateMutability": "view",
			"type": "function"
		},
		{
			"inputs": [],
			"name": "get_y",
			"outputs": [
				{
					"internalType": "int256",
					"name": "",
					"type": "int256"
				}
			],
			"stateMutability": "view",
			"type": "function"
		},
		{
			"inputs": [],
			"name": "x",
			"outputs": [
				{
					"internalType": "int256",
					"name": "",
					"type": "int256"
				}
			],
			"stateMutability": "view",
			"type": "function"
		}
	]
}