{
  "contractName": "StateVariables",
  "abi": [
    {
      "inputs": [
        {
          "internalType": "uint256",
          "name": "_price",
          "type": "uint256"
        },
        {
          "internalType": "string",
          "name": "_location",
          "type": "string"
        }
      ],
      "stateMutability": "nonpayable",
      "type": "constructor"
    },
    {
      "inputs": [],
      "name": "location",
      "outputs": [
        {
          "internalType": "string",
          "name": "",
          "type": "string"
        }
      ],
      "stateMutability": "view",
      "type": "function",
      "constant": true
    },
    {
      "inputs": [],
      "name": "owner",
      "outputs": [
        {
          "internalType": "address",
          "name": "",
          "type": "address"
        }
      ],
      "stateMutability": "view",
      "type": "function",
      "constant": true
    },
    {
      "inputs": [],
      "name": "getPrice",
      "outputs": [
        {
          "internalType": "uint256",
          "name": "",
          "type": "uint256"
        }
      ],
      "stateMutability": "view",
      "type": "function",
      "constant": true
    },
    {
      "inputs": [
        {
          "internalType": "uint256",
          "name": "_price",
          "type": "uint256"
        }
      ],
      "name": "setPrice",
      "outputs": [],
      "stateMutability": "nonpayable",
      "type": "function"
    },
    {
      "inputs": [
        {
          "internalType": "string",
          "name": "_location",
          "type": "string"
        }
      ],
      "name": "setLocation",
      "outputs": [],
      "stateMutability": "nonpayable",
      "type": "function"
    }
  ],
  "bytecode": "0x60a06040523480156200001157600080fd5b5060405162000a4638038062000a4683398181016040528101906200003791906200031b565b8160008190555080600190805190602001906200005692919062000093565b503373ffffffffffffffffffffffffffffffffffffffff1660808173ffffffffffffffffffffffffffffffffffffffff16815250505050620003e6565b828054620000a190620003b0565b90600052602060002090601f016020900481019282620000c5576000855562000111565b82601f10620000e057805160ff191683800117855562000111565b8280016001018555821562000111579182015b8281111562000110578251825591602001919060010190620000f3565b5b50905062000120919062000124565b5090565b5b808211156200013f57600081600090555060010162000125565b5090565b6000604051905090565b600080fd5b600080fd5b6000819050919050565b6200016c8162000157565b81146200017857600080fd5b50565b6000815190506200018c8162000161565b92915050565b600080fd5b600080fd5b6000601f19601f8301169050919050565b7f4e487b7100000000000000000000000000000000000000000000000000000000600052604160045260246000fd5b620001e7826200019c565b810181811067ffffffffffffffff82111715620002095762000208620001ad565b5b80604052505050565b60006200021e62000143565b90506200022c8282620001dc565b919050565b600067ffffffffffffffff8211156200024f576200024e620001ad565b5b6200025a826200019c565b9050602081019050919050565b60005b83811015620002875780820151818401526020810190506200026a565b8381111562000297576000848401525b50505050565b6000620002b4620002ae8462000231565b62000212565b905082815260208101848484011115620002d357620002d262000197565b5b620002e084828562000267565b509392505050565b600082601f8301126200030057620002ff62000192565b5b8151620003128482602086016200029d565b91505092915050565b600080604083850312156200033557620003346200014d565b5b600062000345858286016200017b565b925050602083015167ffffffffffffffff81111562000369576200036862000152565b5b6200037785828601620002e8565b9150509250929050565b7f4e487b7100000000000000000000000000000000000000000000000000000000600052602260045260246000fd5b60006002820490506001821680620003c957607f821691505b60208210811415620003e057620003df62000381565b5b50919050565b60805161064462000402600039600061019801526106446000f3fe608060405234801561001057600080fd5b50600436106100575760003560e01c8063516f279e1461005c578063827bfbdf1461007a5780638da5cb5b1461009657806391b7f5ed146100b457806398d5fdca146100d0575b600080fd5b6100646100ee565b6040516100719190610310565b60405180910390f35b610094600480360381019061008f919061047b565b61017c565b005b61009e610196565b6040516100ab9190610505565b60405180910390f35b6100ce60048036038101906100c99190610556565b6101ba565b005b6100d86101cb565b6040516100e59190610592565b60405180910390f35b600180546100fb906105dc565b80601f0160208091040260200160405190810160405280929190818152602001828054610127906105dc565b80156101745780601f1061014957610100808354040283529160200191610174565b820191906000526020600020905b81548152906001019060200180831161015757829003601f168201915b505050505081565b80600190805190602001906101929291906101d4565b5050565b7f000000000000000000000000000000000000000000000000000000000000000081565b6000600a9050816000819055505050565b60008054905090565b8280546101e0906105dc565b90600052602060002090601f0160209004810192826102025760008555610249565b82601f1061021b57805160ff1916838001178555610249565b82800160010185558215610249579182015b8281111561024857825182559160200191906001019061022d565b5b509050610256919061025a565b5090565b5b8082111561027357600081600090555060010161025b565b5090565b600081519050919050565b600082825260208201905092915050565b60005b838110156102b1578082015181840152602081019050610296565b838111156102c0576000848401525b50505050565b6000601f19601f8301169050919050565b60006102e282610277565b6102ec8185610282565b93506102fc818560208601610293565b610305816102c6565b840191505092915050565b6000602082019050818103600083015261032a81846102d7565b905092915050565b6000604051905090565b600080fd5b600080fd5b600080fd5b600080fd5b7f4e487b7100000000000000000000000000000000000000000000000000000000600052604160045260246000fd5b610388826102c6565b810181811067ffffffffffffffff821117156103a7576103a6610350565b5b80604052505050565b60006103ba610332565b90506103c6828261037f565b919050565b600067ffffffffffffffff8211156103e6576103e5610350565b5b6103ef826102c6565b9050602081019050919050565b82818337600083830152505050565b600061041e610419846103cb565b6103b0565b90508281526020810184848401111561043a5761043961034b565b5b6104458482856103fc565b509392505050565b600082601f83011261046257610461610346565b5b813561047284826020860161040b565b91505092915050565b6000602082840312156104915761049061033c565b5b600082013567ffffffffffffffff8111156104af576104ae610341565b5b6104bb8482850161044d565b91505092915050565b600073ffffffffffffffffffffffffffffffffffffffff82169050919050565b60006104ef826104c4565b9050919050565b6104ff816104e4565b82525050565b600060208201905061051a60008301846104f6565b92915050565b6000819050919050565b61053381610520565b811461053e57600080fd5b50565b6000813590506105508161052a565b92915050565b60006020828403121561056c5761056b61033c565b5b600061057a84828501610541565b91505092915050565b61058c81610520565b82525050565b60006020820190506105a76000830184610583565b92915050565b7f4e487b7100000000000000000000000000000000000000000000000000000000600052602260045260246000fd5b600060028204905060018216806105f457607f821691505b60208210811415610608576106076105ad565b5b5091905056fea2646970667358221220e520f49afd4ccd2c62dfc0485d19959e8eaf8f645b9ce8ea52b22dc69f83283e64736f6c634300080a0033",
  "immutableReferences": {
    "7": [
      {
        "length": 32,
        "start": 408
      }
    ]
  },
  "source": "//SPDX-License-Identifier: GPL-3.0\n \npragma solidity >=0.5.0 <0.9.0;\n \ncontract StateVariables{\n    // declaring state variables saved in contract's storage\n    uint price; // by default is private\n    string public location;\n    \n    // can be initialized at declaration or in the constructor only\n    address immutable public owner; \n    \n    // declaring a constant\n    int constant area = 100;\n    \n    // declaring the constructor\n    // is executed only once at contract's deployment\n    constructor(uint _price, string memory _location){\n        price = _price;\n        location = _location;\n        owner = msg.sender;  // initializing owner to the account's address that deploys the contract\n    }\n    \n    \n    // getter function, returns a state variable\n    // a function declared `view` does not alter the blockchain \n    function getPrice() public view returns(uint){\n        return price;\n    }\n    \n    // setter function, sets a state variable\n    function setPrice(uint _price) public{\n        int a; // local variable saved on stack\n        a = 10;\n        price = _price;\n    }\n    \n    function setLocation(string memory _location) public{ //string types must be declared memory or storage\n        location = _location;\n    }\n    \n}",
  "sourcePath": "/Users/rhizomfoundation/Desktop/Projetos/solidity-smartcontracts/contracts/StateVariables.sol",
  "compiler": {
    "name": "solc",
    "version": "0.8.10+commit.fc410830.Emscripten.clang"
  },
  "schemaVersion": "3.4.3",
  "updatedAt": "2021-11-26T20:14:27.315Z",
  "networkType": "ethereum",
  "devdoc": {
    "kind": "dev",
    "methods": {},
    "version": 1
  },
  "userdoc": {
    "kind": "user",
    "methods": {},
    "version": 1
  }
}